{
  "contractName": "MyEthBook3",
  "abi": [
    {
      "constant": true,
      "inputs": [
        {
          "name": "",
          "type": "address"
        },
        {
          "name": "",
          "type": "uint256"
        }
      ],
      "name": "_ethBook",
      "outputs": [
        {
          "name": "name",
          "type": "bytes32"
        },
        {
          "name": "addr",
          "type": "address"
        }
      ],
      "payable": false,
      "stateMutability": "view",
      "type": "function"
    },
    {
      "inputs": [],
      "payable": false,
      "stateMutability": "nonpayable",
      "type": "constructor"
    },
    {
      "constant": false,
      "inputs": [
        {
          "name": "refLink",
          "type": "bytes32"
        }
      ],
      "name": "initUser",
      "outputs": [],
      "payable": false,
      "stateMutability": "nonpayable",
      "type": "function"
    },
    {
      "constant": false,
      "inputs": [],
      "name": "unlockUser",
      "outputs": [
        {
          "name": "",
          "type": "bool"
        }
      ],
      "payable": true,
      "stateMutability": "payable",
      "type": "function"
    },
    {
      "constant": false,
      "inputs": [
        {
          "name": "email",
          "type": "string"
        }
      ],
      "name": "inviteFriend",
      "outputs": [
        {
          "name": "",
          "type": "string"
        }
      ],
      "payable": false,
      "stateMutability": "nonpayable",
      "type": "function"
    },
    {
      "constant": false,
      "inputs": [
        {
          "name": "refOwner",
          "type": "address"
        },
        {
          "name": "refLink",
          "type": "bytes32"
        },
        {
          "name": "email",
          "type": "string"
        }
      ],
      "name": "acceptInvitation",
      "outputs": [
        {
          "name": "",
          "type": "bool"
        }
      ],
      "payable": false,
      "stateMutability": "nonpayable",
      "type": "function"
    },
    {
      "constant": false,
      "inputs": [
        {
          "name": "name",
          "type": "bytes32"
        },
        {
          "name": "addr",
          "type": "address"
        }
      ],
      "name": "addContact",
      "outputs": [
        {
          "name": "",
          "type": "bool"
        }
      ],
      "payable": false,
      "stateMutability": "nonpayable",
      "type": "function"
    },
    {
      "constant": false,
      "inputs": [
        {
          "name": "bookOwner",
          "type": "address"
        },
        {
          "name": "index",
          "type": "uint256"
        }
      ],
      "name": "deleteContact",
      "outputs": [
        {
          "name": "",
          "type": "bool"
        }
      ],
      "payable": false,
      "stateMutability": "nonpayable",
      "type": "function"
    },
    {
      "constant": false,
      "inputs": [
        {
          "name": "bookOwner",
          "type": "address"
        },
        {
          "name": "index",
          "type": "uint256"
        },
        {
          "name": "name",
          "type": "bytes32"
        },
        {
          "name": "addr",
          "type": "address"
        }
      ],
      "name": "editContact",
      "outputs": [
        {
          "name": "",
          "type": "bool"
        }
      ],
      "payable": false,
      "stateMutability": "nonpayable",
      "type": "function"
    },
    {
      "constant": true,
      "inputs": [
        {
          "name": "addr",
          "type": "address"
        }
      ],
      "name": "getRefferals",
      "outputs": [
        {
          "name": "",
          "type": "string"
        }
      ],
      "payable": false,
      "stateMutability": "view",
      "type": "function"
    },
    {
      "constant": true,
      "inputs": [],
      "name": "getTotalCount",
      "outputs": [
        {
          "name": "count",
          "type": "uint256"
        }
      ],
      "payable": false,
      "stateMutability": "view",
      "type": "function"
    },
    {
      "constant": true,
      "inputs": [
        {
          "name": "addr",
          "type": "address"
        }
      ],
      "name": "getMyBookCount",
      "outputs": [
        {
          "name": "count",
          "type": "uint256"
        }
      ],
      "payable": false,
      "stateMutability": "view",
      "type": "function"
    },
    {
      "constant": true,
      "inputs": [
        {
          "name": "index",
          "type": "uint256"
        },
        {
          "name": "addr",
          "type": "address"
        }
      ],
      "name": "getContact",
      "outputs": [
        {
          "name": "",
          "type": "bytes32"
        },
        {
          "name": "",
          "type": "address"
        }
      ],
      "payable": false,
      "stateMutability": "view",
      "type": "function"
    },
    {
      "constant": false,
      "inputs": [
        {
          "name": "addr",
          "type": "address"
        },
        {
          "name": "amount",
          "type": "uint256"
        }
      ],
      "name": "payPraize",
      "outputs": [],
      "payable": false,
      "stateMutability": "nonpayable",
      "type": "function"
    },
    {
      "constant": false,
      "inputs": [
        {
          "name": "newPrice",
          "type": "uint256"
        }
      ],
      "name": "changeUnlockPrice",
      "outputs": [
        {
          "name": "",
          "type": "uint256"
        }
      ],
      "payable": false,
      "stateMutability": "nonpayable",
      "type": "function"
    },
    {
      "constant": false,
      "inputs": [
        {
          "name": "newMinRefCount",
          "type": "uint256"
        }
      ],
      "name": "changeMinRefCount",
      "outputs": [
        {
          "name": "",
          "type": "uint256"
        }
      ],
      "payable": false,
      "stateMutability": "nonpayable",
      "type": "function"
    }
  ],
  "bytecode": "0x6060604052341561000f57600080fd5b336000806101000a81548173ffffffffffffffffffffffffffffffffffffffff021916908373ffffffffffffffffffffffffffffffffffffffff1602179055506611c37937e08000600181905550600280819055506117c5806100736000396000f3006060604052600436106100db576000357c0100000000000000000000000000000000000000000000000000000000900463ffffffff1680631975de4f146100e05780631cd844d9146101175780631e6e5d81146101ed57806330dd583e1461024b5780633ed8bd3b146102d1578063532770f51461036257806354a1fcad146103f357806356d42bb3146104945780635ff94733146104bd5780637725253f146104df578063c21ac9a214610521578063d40aa5d41461057b578063d96880971461062d578063e4a4715814610664578063ece93f411461068b575b600080fd5b34156100eb57600080fd5b61010160048080359060200190919050506106d8565b6040518082815260200191505060405180910390f35b341561012257600080fd5b610172600480803590602001908201803590602001908080601f01602080910402602001604051908101604052809392919081815260200183838082843782019150505050505091905050610741565b6040518080602001828103825283818151815260200191508051906020019080838360005b838110156101b2578082015181840152602081019050610197565b50505050905090810190601f1680156101df5780820380516001836020036101000a031916815260200191505b509250505060405180910390f35b34156101f857600080fd5b61023160048080356000191690602001909190803573ffffffffffffffffffffffffffffffffffffffff169060200190919050506109cc565b604051808215151515815260200191505060405180910390f35b341561025657600080fd5b6102b7600480803573ffffffffffffffffffffffffffffffffffffffff169060200190919080359060200190919080356000191690602001909190803573ffffffffffffffffffffffffffffffffffffffff16906020019091905050610b23565b604051808215151515815260200191505060405180910390f35b34156102dc57600080fd5b610311600480803573ffffffffffffffffffffffffffffffffffffffff16906020019091908035906020019091905050610c87565b6040518083600019166000191681526020018273ffffffffffffffffffffffffffffffffffffffff1673ffffffffffffffffffffffffffffffffffffffff1681526020019250505060405180910390f35b341561036d57600080fd5b6103a2600480803590602001909190803573ffffffffffffffffffffffffffffffffffffffff16906020019091905050610ce7565b6040518083600019166000191681526020018273ffffffffffffffffffffffffffffffffffffffff1673ffffffffffffffffffffffffffffffffffffffff1681526020019250505060405180910390f35b34156103fe57600080fd5b61047a600480803573ffffffffffffffffffffffffffffffffffffffff169060200190919080356000191690602001909190803590602001908201803590602001908080601f01602080910402602001604051908101604052809392919081815260200183838082843782019150505050505091905050610dd1565b604051808215151515815260200191505060405180910390f35b341561049f57600080fd5b6104a76110c8565b6040518082815260200191505060405180910390f35b6104c5611112565b604051808215151515815260200191505060405180910390f35b34156104ea57600080fd5b61051f600480803573ffffffffffffffffffffffffffffffffffffffff169060200190919080359060200190919050506111cf565b005b341561052c57600080fd5b610561600480803573ffffffffffffffffffffffffffffffffffffffff1690602001909190803590602001909190505061126e565b604051808215151515815260200191505060405180910390f35b341561058657600080fd5b6105b2600480803573ffffffffffffffffffffffffffffffffffffffff1690602001909190505061135a565b6040518080602001828103825283818151815260200191508051906020019080838360005b838110156105f25780820151818401526020810190506105d7565b50505050905090810190601f16801561061f5780820380516001836020036101000a031916815260200191505b509250505060405180910390f35b341561063857600080fd5b61064e6004808035906020019091905050611441565b6040518082815260200191505060405180910390f35b341561066f57600080fd5b6106896004808035600019169060200190919050506114aa565b005b341561069657600080fd5b6106c2600480803573ffffffffffffffffffffffffffffffffffffffff16906020019091905050611503565b6040518082815260200191505060405180910390f35b60008060009054906101000a900473ffffffffffffffffffffffffffffffffffffffff1673ffffffffffffffffffffffffffffffffffffffff163373ffffffffffffffffffffffffffffffffffffffff1614151561073557600080fd5b81600181905550919050565b610749611646565b61089a6107ac6107a76107906040805190810160405280600181526020017f2c0000000000000000000000000000000000000000000000000000000000000081525061154f565b6107998661154f565b61157d90919063ffffffff16565b61154f565b61088c600760003373ffffffffffffffffffffffffffffffffffffffff1673ffffffffffffffffffffffffffffffffffffffff1681526020019081526020016000208054600181600116156101000203166002900480601f0160208091040260200160405190810160405280929190818152602001828054600181600116156101000203166002900480156108825780601f1061085757610100808354040283529160200191610882565b820191906000526020600020905b81548152906001019060200180831161086557829003601f168201915b505050505061154f565b61157d90919063ffffffff16565b600760003373ffffffffffffffffffffffffffffffffffffffff1673ffffffffffffffffffffffffffffffffffffffff16815260200190815260200160002090805190602001906108ec92919061165a565b50600760003373ffffffffffffffffffffffffffffffffffffffff1673ffffffffffffffffffffffffffffffffffffffff1681526020019081526020016000208054600181600116156101000203166002900480601f0160208091040260200160405190810160405280929190818152602001828054600181600116156101000203166002900480156109c05780601f10610995576101008083540402835291602001916109c0565b820191906000526020600020905b8154815290600101906020018083116109a357829003601f168201915b50505050509050919050565b6000600460003373ffffffffffffffffffffffffffffffffffffffff1673ffffffffffffffffffffffffffffffffffffffff16815260200190815260200160002060009054906101000a900460ff1615610b1857600360003373ffffffffffffffffffffffffffffffffffffffff1673ffffffffffffffffffffffffffffffffffffffff1681526020019081526020016000208054806001018281610a7191906116da565b916000526020600020906002020160006040805190810160405280876000191681526020018673ffffffffffffffffffffffffffffffffffffffff1681525090919091506000820151816000019060001916905560208201518160010160006101000a81548173ffffffffffffffffffffffffffffffffffffffff021916908373ffffffffffffffffffffffffffffffffffffffff16021790555050505060019050610b1d565b600090505b92915050565b600083600360008773ffffffffffffffffffffffffffffffffffffffff1673ffffffffffffffffffffffffffffffffffffffff168152602001908152602001600020805490501115610c7a5782600360008773ffffffffffffffffffffffffffffffffffffffff1673ffffffffffffffffffffffffffffffffffffffff16815260200190815260200160002085815481101515610bbc57fe5b9060005260206000209060020201600001816000191690555081600360008773ffffffffffffffffffffffffffffffffffffffff1673ffffffffffffffffffffffffffffffffffffffff16815260200190815260200160002085815481101515610c2257fe5b906000526020600020906002020160010160006101000a81548173ffffffffffffffffffffffffffffffffffffffff021916908373ffffffffffffffffffffffffffffffffffffffff16021790555060019050610c7f565b600090505b949350505050565b600360205281600052604060002081815481101515610ca257fe5b9060005260206000209060020201600091509150508060000154908060010160009054906101000a900473ffffffffffffffffffffffffffffffffffffffff16905082565b600080600360008473ffffffffffffffffffffffffffffffffffffffff1673ffffffffffffffffffffffffffffffffffffffff16815260200190815260200160002084815481101515610d3657fe5b906000526020600020906002020160000154600360008573ffffffffffffffffffffffffffffffffffffffff1673ffffffffffffffffffffffffffffffffffffffff16815260200190815260200160002085815481101515610d9457fe5b906000526020600020906002020160010160009054906101000a900473ffffffffffffffffffffffffffffffffffffffff16915091509250929050565b60008260001916600660008673ffffffffffffffffffffffffffffffffffffffff1673ffffffffffffffffffffffffffffffffffffffff1681526020019081526020016000205460001916141515610e2857600080fd5b610f79610e8b610e86610e3a8561154f565b610e786040805190810160405280600181526020017f2c0000000000000000000000000000000000000000000000000000000000000081525061154f565b61157d90919063ffffffff16565b61154f565b610f6b600860008873ffffffffffffffffffffffffffffffffffffffff1673ffffffffffffffffffffffffffffffffffffffff1681526020019081526020016000208054600181600116156101000203166002900480601f016020809104026020016040519081016040528092919081815260200182805460018160011615610100020316600290048015610f615780601f10610f3657610100808354040283529160200191610f61565b820191906000526020600020905b815481529060010190602001808311610f4457829003601f168201915b505050505061154f565b61157d90919063ffffffff16565b600860008673ffffffffffffffffffffffffffffffffffffffff1673ffffffffffffffffffffffffffffffffffffffff1681526020019081526020016000209080519060200190610fcb92919061165a565b506001600560008673ffffffffffffffffffffffffffffffffffffffff1673ffffffffffffffffffffffffffffffffffffffff16815260200190815260200160002060008282540192505081905550600254600560008673ffffffffffffffffffffffffffffffffffffffff1673ffffffffffffffffffffffffffffffffffffffff168152602001908152602001600020541015156110bd576001600460008673ffffffffffffffffffffffffffffffffffffffff1673ffffffffffffffffffffffffffffffffffffffff16815260200190815260200160002060006101000a81548160ff0219169083151502179055505b600190509392505050565b6000600360003373ffffffffffffffffffffffffffffffffffffffff1673ffffffffffffffffffffffffffffffffffffffff16815260200190815260200160002080549050905090565b6000803490506001548110151561117c576001600460003373ffffffffffffffffffffffffffffffffffffffff1673ffffffffffffffffffffffffffffffffffffffff16815260200190815260200160002060006101000a81548160ff0219169083151502179055505b600460003373ffffffffffffffffffffffffffffffffffffffff1673ffffffffffffffffffffffffffffffffffffffff16815260200190815260200160002060009054906101000a900460ff1691505090565b6000809054906101000a900473ffffffffffffffffffffffffffffffffffffffff1673ffffffffffffffffffffffffffffffffffffffff163373ffffffffffffffffffffffffffffffffffffffff1614151561122a57600080fd5b8173ffffffffffffffffffffffffffffffffffffffff166108fc829081150290604051600060405180830381858888f19350505050151561126a57600080fd5b5050565b600081600360008573ffffffffffffffffffffffffffffffffffffffff1673ffffffffffffffffffffffffffffffffffffffff16815260200190815260200160002080549050111561134f57600360008473ffffffffffffffffffffffffffffffffffffffff1673ffffffffffffffffffffffffffffffffffffffff1681526020019081526020016000208281548110151561130657fe5b90600052602060002090600202016000808201600090556001820160006101000a81549073ffffffffffffffffffffffffffffffffffffffff0219169055505060019050611354565b600090505b92915050565b611362611646565b600860008373ffffffffffffffffffffffffffffffffffffffff1673ffffffffffffffffffffffffffffffffffffffff1681526020019081526020016000208054600181600116156101000203166002900480601f0160208091040260200160405190810160405280929190818152602001828054600181600116156101000203166002900480156114355780601f1061140a57610100808354040283529160200191611435565b820191906000526020600020905b81548152906001019060200180831161141857829003601f168201915b50505050509050919050565b60008060009054906101000a900473ffffffffffffffffffffffffffffffffffffffff1673ffffffffffffffffffffffffffffffffffffffff163373ffffffffffffffffffffffffffffffffffffffff1614151561149e57600080fd5b81600281905550919050565b6000602060ff1611156115005780600660003373ffffffffffffffffffffffffffffffffffffffff1673ffffffffffffffffffffffffffffffffffffffff16815260200190815260200160002081600019169055505b50565b6000600360008373ffffffffffffffffffffffffffffffffffffffff1673ffffffffffffffffffffffffffffffffffffffff168152602001908152602001600020805490509050919050565b61155761170c565b600060208301905060408051908101604052808451815260200182815250915050919050565b611585611646565b61158d611646565b600083600001518560000151016040518059106115a75750595b9080825280601f01601f191660200182016040525091506020820190506115d781866020015187600001516115fb565b6115f085600001518201856020015186600001516115fb565b819250505092915050565b60005b60208210151561162357825184526020840193506020830192506020820391506115fe565b6001826020036101000a0390508019835116818551168181178652505050505050565b602060405190810160405280600081525090565b828054600181600116156101000203166002900490600052602060002090601f016020900481019282601f1061169b57805160ff19168380011785556116c9565b828001600101855582156116c9579182015b828111156116c85782518255916020019190600101906116ad565b5b5090506116d69190611726565b5090565b81548183558181151161170757600202816002028360005260206000209182019101611706919061174b565b5b505050565b604080519081016040528060008152602001600081525090565b61174891905b8082111561174457600081600090555060010161172c565b5090565b90565b61179691905b80821115611792576000808201600090556001820160006101000a81549073ffffffffffffffffffffffffffffffffffffffff021916905550600201611751565b5090565b905600a165627a7a72305820ac9373e0b39f528fdb9d897c823b71911f95b26461ab50b8af3c65402b2d90810029",
  "source": "pragma solidity ^0.4.14;\r\n\r\nimport \"./strings.sol\";\r\n\r\ncontract MyEthBook3{\r\n    using strings for *;\r\n    \r\n    struct contactAddress{\r\n        bytes32 name;\r\n        address addr;\r\n    }\r\n    address _owner;\r\n    uint _unlockPrice;\r\n    uint _minRefCount;\r\n    \r\n    mapping (address => contactAddress[]) public  _ethBook;\r\n    mapping(address => bool) private unlockedUsers;\r\n    mapping(address => uint) private invitedUsersCountPerUser;\r\n    \r\n    mapping(address => bytes32) private usersReferalLinks;\r\n    mapping(address => string) private invitedUsersEmailsPerUser;\r\n    mapping(address => string) private invitedAndAcceptedUsersEmailsPerUser;\r\n    \r\n    modifier isOwner(){\r\n        require(msg.sender == _owner);\r\n        _;\r\n    }\r\n    function MyEthBook3() public{\r\n        _owner = msg.sender;\r\n        _unlockPrice = 0.005 ether;\r\n        _minRefCount = 2;\r\n    }\r\n    \r\n    function initUser(bytes32 refLink) public{\r\n        if(refLink.length > 0) {\r\n            usersReferalLinks[msg.sender] = refLink;\r\n        }\r\n    }\r\n    \r\n    function unlockUser()  public payable returns (bool){\r\n        uint val = msg.value;\r\n        if(val >= _unlockPrice){\r\n                unlockedUsers[msg.sender] = true;\r\n        }\r\n        return unlockedUsers[msg.sender];\r\n    }    \r\n    \r\n    function inviteFriend(string email) public returns (string) { \r\n        invitedUsersEmailsPerUser[msg.sender] = invitedUsersEmailsPerUser[msg.sender].toSlice()\r\n            .concat((email.toSlice().concat(\",\".toSlice())).toSlice());\r\n        \r\n        return invitedUsersEmailsPerUser[msg.sender];\r\n    }\r\n    \r\n    function acceptInvitation(address refOwner, bytes32 refLink, string email) public returns (bool){\r\n        require(usersReferalLinks[refOwner] == refLink);\r\n        \r\n        invitedAndAcceptedUsersEmailsPerUser[refOwner] = invitedAndAcceptedUsersEmailsPerUser[refOwner].toSlice()\r\n            .concat((\",\".toSlice().concat(email.toSlice())).toSlice());\r\n            \r\n        invitedUsersCountPerUser[refOwner] += 1;\r\n        \r\n        if( invitedUsersCountPerUser[refOwner] >= _minRefCount){\r\n            unlockedUsers[refOwner] = true;\r\n        }\r\n        \r\n        return true;\r\n    }\r\n    \r\n    function addContact(bytes32 name,address addr) public returns (bool){\r\n        if(unlockedUsers[msg.sender]){\r\n            _ethBook[msg.sender].push(contactAddress( \r\n            {\r\n                name: name,\r\n                addr: addr\r\n            }));\r\n            return true;\r\n        }\r\n        return false;\r\n    }\r\n    \r\n    function deleteContact(address bookOwner, uint index) public returns(bool){\r\n        if(_ethBook[bookOwner].length > index){\r\n            delete _ethBook[bookOwner][index];\r\n            return true;\r\n        }\r\n        return false;\r\n    }\r\n    \r\n    function editContact(address bookOwner, uint index, bytes32 name, address addr) public returns(bool){\r\n        if(_ethBook[bookOwner].length > index){\r\n            _ethBook[bookOwner][index].name = name;\r\n            _ethBook[bookOwner][index].addr = addr;\r\n            return true;\r\n        }\r\n         return false;\r\n    }\r\n    \r\n    function getRefferals(address addr) public view returns(string){\r\n        return invitedAndAcceptedUsersEmailsPerUser[addr];\r\n    }\r\n    \r\n    function getTotalCount() public view returns(uint count){\r\n         count = _ethBook[msg.sender].length;\r\n    }\r\n    \r\n    function getMyBookCount(address addr) public view returns(uint count){\r\n         count = _ethBook[addr].length;\r\n    }\r\n    \r\n    function getContact(uint index, address addr) public view returns(bytes32, address){\r\n        return (_ethBook[addr][index].name , _ethBook[addr][index].addr);\r\n    }\r\n   \r\n    function payPraize(address addr, uint amount) isOwner public {\r\n       addr.transfer(amount);\r\n    }\r\n    \r\n    function changeUnlockPrice(uint newPrice) public isOwner returns (uint){\r\n        _unlockPrice = newPrice;\r\n    }\r\n    \r\n    function changeMinRefCount(uint newMinRefCount) public isOwner returns (uint){\r\n        _minRefCount = newMinRefCount;\r\n    }\r\n}",
  "sourcePath": "C:\\Users\\User1\\Documents\\Visual Studio 2017\\Projects\\MyEthBook\\MyEthBook.Truffle\\contracts\\MyEthBook.sol",
  "compiler": {
    "name": "solc",
    "version": "0.4.19+commit.c4cbbb05.Emscripten.clang"
  },
  "schemaVersion": "1.0.1",
  "updatedAt": "2018-02-23T12:15:34.408Z"
}